S01900005247505F4C45445F746573745F76312E302E737265636B
S11300000C943B000C9458000C9458000C94580029
S11300100C9458000C9458000C9458000C945800FC
S11300200C9458000C9458000C9458000C945800EC
S11300300C9458000C9458000C9458000C945800DC
S11300400C9458000C9458000C9458000C945800CC
S11300500C9458000C9458000C9458000C945800BC
S11300600C9458000C945800E800F400FF000A01B6
S113007015011C01230111241FBECFEFD8E0DEBF00
S1130080CDBF24E0A0E0B1E001C01D92AE38B207BC
S1130090E1F711E0A0E0B1E0E8EAF2E002C0059087
S11300A00D92A030B107D9F70E94B2000C9452010E
S11300B00C940000409A00000000000000000000C2
S11300C040980895409A00000000000000000000DD
S11300D000000000000000000000000040980895A7
S11300E08F929F92AF92BF92EF92FF920F931F93C2
S11300F0CF93DF9302E011E00F2EFEE8EF2EF4E041
S1130100FF2EF02D1DC0B694A79497948794F80100
S113011080819181A281B38188219921AA21BB2167
S1130120892B8A2B8B2B19F40E945A0002C00E943F
S11301306200219741F70C5F1F4FE016F10639F07A
S1130140C8E1D0E0812C912C5401B394DCCFDF9131
S1130150CF911F910F91FF90EF90BF90AF909F9020
S11301608F900895389A16E0CEE8D4E00F2EFFE081
S11301704F2E512CF8E46F2E712CF02D312C0F2EB4
S1130180FFE08F2E912CFBE4AF2EB12CF02DC12C6F
S1130190D12C7601CA9405E06894222422F8809137
S11301A00101811103C01093010103C081508093A8
S11301B0010180910101A2E0B1E0482F50E0FA0171
S11301C04730510508F049C0EC5CFF4F0C944C01DA
S11301D020E030E04FEF50E02D933D934D935D933D
S11301E0CA17DB0709F43FC020E030E44FE050E0D9
S11301F02D933D934D935D93CA17DB07B1F120E036
S11302003FE04FE050E02D933D934D935D93CA172B
S1130210DB0769F120E03FEF40E050E02D933D9390
S11302204D935D93CA17DB0721F1CD92DD92ED92D8
S1130230FD92AC17BD07F9F08D929D92AD92BD92DF
S1130240CA17DB07D1F04D925D926D927D92CA1769
S1130250DB0709F0BDCF832D11C01496CA17DB0745
S113026009F0ADCF0BC081E009C082E007C083E094
S113027005C0822D03C0802F01C0812F809300010F
S11302800E9470003FEF40E752E031504040504040
S1130290E1F700C0000083CFEE0FFF1F0590F4913B
S10B02A0E02D0994F894FFCF4E
S9030000FC
