S01900005247425F4C57535F746573745F76332E302E7372656356
S11300000C9434000C9451000C9451000C94510045
S11300100C9451000C9451000C9451000C94510018
S11300200C9451000C9451000C9451000C94510008
S11300300C9451000C9451000C9451000C945100F8
S11300400C9451000C9451000C9451000C945100E8
S11300500C9451000C9451000C9451000C945100D8
S11300600C9451000C94510011241FBECFEFD8E022
S1130070DEBFCDBF11E0A0E0B1E0E6E8F2E002C0EF
S113008005900D92A230B107D9F722E0A2E0B1E0C9
S113009001C01D92A832B207E1F70E9415010C9429
S11300A041010C9400009B01220F331F620F731F48
S11300B0229A25B12B7F35B134604FB7F89461157E
S11300C07105B1F0FC01680F791F919188E035B991
S11300D0000000C097FF25B9990F000000C000C0C0
S11300E000C025B900C08A9591F7E617F70769F7AC
S11300F04FBF0895E5E2F2E02AE131E0A291929146
S1130100829183839483A583E217F307B9F78091DF
S113011001018B3060F0809100018F5F883018F40A
S11301208093000102C0109200011092010180919D
S113013001018F5F8093010140911B0180910001B7
S113014090E0FC01EE0FFF1FE80FF91FEE5FFE4F7A
S1130150218130E0E42FF0E0B90169517109E6171B
S1130160F7071CF4475E40931B0140911B01642F69
S113017070E0275E3F4F261737071CF44951409320
S11301801B0140911A01FC01EE0FFF1FE80FF91F3C
S1130190EE5FFE4F208130E0E42FF0E0B9016951B9
S11301A07109E617F7071CF4475E40931A01409162
S11301B01A01642F70E0275E3F4F261737071CF49F
S11301C0495140931A0120911C01FC01EE0FFF1FBD
S11301D08E0F9F1FFC01EE5FFE4F828190E0622F25
S11301E070E0AC0149515109641775071CF4275E8E
S11301F020931C0120911C01422F50E04996841742
S113020095071CF4295120931C012FEF89EF90E0EE
S1130210215080409040E1F700C000006AE570E0A2
S11302208AE191E00E9453000895229AE5E2F2E007
S113023087E191E01182108212823397E817F9075F
S1130240C9F7E2E0F1E086E98183808382838FEF5E
S1130250848313821582878394E69683108692871B
S113026081871386158684871686108A9787818BE3
S1130270138A128A848B968B158A878B0E947A0044
S1090280FDCFF894FFCF4E
S1050286010170
S9030000FC
