S01900005247425F4C45445F746573745F76322E302E7372656378
S11300000C943C000C9459000C9459000C94590025
S11300100C9459000C9459000C9459000C945900F8
S11300200C9459000C9459000C9459000C945900E8
S11300300C9459000C9459000C9459000C945900D8
S11300400C9459000C9459000C9459000C945900C8
S11300500C9459000C9459000C9459000C945900B8
S11300600C9459000C94590098009D00A800B3000A
S1130070BB00C300CC00DA0011241FBECFEFD8E0D0
S1130080DEBFCDBF11E0A0E0B1E0ECE0F5E002C0DE
S113009005900D92A030B107D9F722E0A0E0B1E0BD
S11300A001C01D92AE30B207E1F70E945B000C94D0
S11300B084020C940000CF93DF93CDB7DEB72D9765
S11300C00FB6F894DEBF0FBECDBF389A0F2EF4EBF7
S11300D0EF2EF1E0FF2EF02D0AE511E020E031E0F3
S11300E040E050E0BA018AE50E945F029701A8014E
S11300F060E071E08AE50E94F90199249A941F82D4
S113010018862FE329871A86212C312C412C0F2E97
S1130110FFE35F2EF02D812C51C0822D90E08830BA
S1130120910508F04BC0FC01EC5CFF4F0C947E027F
S11301303F80488459848A8441C00F2EFFE73F2EB4
S1130140F02D0F2EFFE74F2EF02D512C812C36C0B1
S1130150312C0F2EFFE74F2EF02D0F2EFFE75F2ED1
S1130160F02D812C2BC0312C0F2EFFE34F2EF02DC0
S1130170512C812C23C00F2EFFE33F2EF02D412C58
S1130180512C812C1BC0312C0F2EF5EA4F2EF02D53
S113019055245A94812C12C00F2EF7E73F2EF02DD0
S11301A00F2EF1E44F2EF02D0F2EF7E75F2EF02DDA
S11301B0812C04C0312C412C512C812C80E091E005
S11301C09A838983E4EBF1E0FC83EB838AE591E095
S11301D09E838D833C015F010F2EF0E0CF2EF1E072
S11301E0DF2EF02D91E01B869C8706C0FB85FF5F08
S11301F0FB872C852F5F2C87F60191926F01F50107
S113020091925F01F30191923F01FB85FF2309F471
S1130210A4C00F2EF4EBEF2EF1E0FF2EF02D0AE533
S113022011E020E031E0432D542D652D782D8F2FE2
S11302300E945F029701A80160E071E08AE50E94D4
S1130240F9012FEF86E791E0215080409040E1F7DB
S113025000C00000EC85EA3548F22394F8E02F1240
S11302605CCFAD80BE80CB80DC8089819A8188247C
S113027083949D878C8701C08394EC85FD8591923E
S1130280FD87EC87F60191926F01F50191925F0170
S1130290F1E08F1609F474C00F2EF4EBEF2EF1E0A9
S11302A0FF2EF02D0AE511E020E031E040E050E0BF
S11302B06FE370E08EEF880D0E945F029701A80142
S11302C060E071E08AE50E94F9012FEF86E791E092
S11302D0215080409040E1F700C00000E9E5E815B6
S11302E058F6F1E0FB87C980DA80AB80BC806D8072
S11302F07E8003C02B852F5F2B87F60191926F01BF
S1130300F50191925F01F30191923F01FB85F13078
S113031009F449C00F2EF4EBEF2EF1E0FF2EF02D7F
S11303200AE511E020E031E04FE350E060E070E0E6
S11303308F2F82500E945F029701A80160E071E054
S11303408AE50E94F9018FE39CE90197F1F700C067
S113035000009B859A3570F2D7CE24EB31E04AE554
S113036051E060E071E08AE50E94F901EFEFF6E701
S113037021E0E150F0402040E1F700C0000036CF1A
S113038024EB31E04AE551E060E071E08AE50E9447
S1130390F9018FEF96E7E1E081509040E040E1F70A
S11303A000C0000069CF24EB31E04AE551E060E091
S11303B071E08AE50E94F9018FE39CE90197F1F766
S11303C000C0000097CF409A000000000000000029
S11303D0000040980895409A0000000000000000CA
S11303E00000000000000000000000000000409831
S11303F00895AF92BF92CF92DF92EF92FF920F9344
S11304001F93CF93DF93882309F44EC06901E90158
S1130410E62EF72E042F152F815090E00196C80E7A
S1130420D91E3BC0F80180818A2119F00E94EB019A
S113043002C00E94E301A694BA94B110F3CF689469
S1130440BB24B3F86894AA24A7F8F70180818A2111
S113045019F00E94EB0102C00E94E301A694BA9431
S1130460B110F3CF6894BB24B3F86894AA24A7F816
S113047088818A2119F00E94EB0102C00E94E301E5
S1130480A694BA94B110F4CF2196FFEFEF1AFF0AA5
S11304900F5F1F4FCC15DD0539F06894BB24B3F80A
S11304A06894AA24A7F8BECFDF91CF911F910F9132
S11304B0FF90EF90DF90CF90BF90AF900895EF92B0
S11304C0FF920F931F93CF93DF93882381F0F90159
S11304D0C02FD12FAE2DBF2D815090E00196280F53
S11304E0391F619359934D93E217F307D1F7DF91C5
S11304F0CF911F910F91FF90EF900895EE0FFF1F82
S10F05000590F491E02D0994F894FFCFCD
S9030000FC
